:10000000C80A0020090100000501000005010000E8
:1000100000000000000000000000000000000000E0
:1000200000000000000000000000000005010000CA
:10003000000000000000000005010000F5090000BC
:10004000050100000501000005010000D90E0000B7
:100050000501000005010000050100000501000088
:1000600005010000650800007D08000095080000FB
:10007000AD080000C5080000DD0800000501000013
:100080000501000005010000050100000501000058
:100090000501000005010000050100000501000048
:1000A0000501000005010000050100000501000038
:1000B00005010000050100000501000010B5064C17
:1000C0002378002B07D1054B002B02D0044800E019
:1000D00000BF0123237010BD4C0000200000000071
:1000E00054140000044B10B5002B03D003490448FE
:1000F00000E000BF10BDC04600000000500000201E
:1001000054140000FEE7000010B500F02BF80E4A72
:100110000E4B9A4207D00D4B0B4A01E002CA02C3B4
:100120000B498B42FAD30B4B01E0002204C30A4A6D
:100130009342FAD3094BFF229343094A936001F09B
:100140004DF900F06DFCFEE75414000000000020A3
:10015000480000204C000020C802002000000000E1
:1001600000ED00E0064B84225A60064B00225A75CF
:10017000044B9B69002BFBD1034B044A1A60704768
:10018000004000410010004048000020006CDC02EC
:1001900070B504000E001500042000F0FBFB0028E1
:1001A0001BD002210F232A009A43102A17D0302A8D
:1001B00017D0434B9C4216D0424B9C4226D023780A
:1001C000012213432370238CDB07FCD4002D33D191
:1001D00000292ED10123637031E00021E2E70021E4
:1001E000E7E70221E5E7384AD06980239B02034311
:1001F000D36140230B433548822252008350334859
:100200008222520082585306F9D5D8E72E4AD06987
:100210008023DB020343D36140230B432B4884221A
:1002200052008350294A84235B00D3585B06F9D5DA
:10023000C5E70023637002E00F2215406570627B02
:1002400080235B421343637363898022134363817A
:10025000C0235B0123811E4B1B68194A944218D0AE
:10026000184A944220D080235B423343DBB2A37010
:100270002378022213432370238C9B07FCD4237E14
:10028000022213432376A379DB07FCD50123A37154
:1002900070BD1A02C02189000A40DB0807210B400B
:1002A0001343074A9385DEE79A091202E021C90049
:1002B0000A405B0A07210B401343024A9385D2E7A9
:1002C000004400420048004200080040001C00407A
:1002D00020608000428901239A4342811E330B40F3
:1002E000C021490119430181038C5B07FCD470478D
:1002F000438901220A40920004218B431343438126
:10030000038C1B07FCD4037E022213430376704741
:1003100010B5002A0CD101328A40C0018223DB05CE
:100320009C4660444260401840300223037010BD78
:10033000012A12D0022A1ED0032A2AD0042AF6D17A
:10034000033A8A40C3018220C005844663445A6050
:100350005918403100230B70E9E701248C40C20199
:100360008223DB059C46624454605461521840323B
:1003700006231370DBE701238B40C0018222D205E4
:1003800094466044436083614118403106230B70FA
:10039000CDE701238B40C0018222D2059446604400
:1003A000436183604118403102230B70BFE7F0B511
:1003B000C3018224E405A44663445B1840331C78DF
:1003C0000125AC431C70092A19D84D08C0016044AE
:1003D000451930352E7801240C40A4000F231F004E
:1003E000A740BE432E702E781A40A2403243D2B2AC
:1003F0002A70401840300378012213430370F0BD87
:10040000C0018223DB059C466044026A01238B40C5
:10041000134201D0012070470020FCE710B5040012
:1004200000F0B8FA00281ED0012C07D0022C1BD0F7
:10043000042C1BD0082C1BD0012200E000220D4907
:1004400048698023DB0003434B61402313430A497F
:1004500088228B50084A8823D3585B06FAD5074B6D
:1004600008221A60012010BD0122E8E70222E6E717
:100470000722E4E700080040001C004000E100E023
:10048000F0B507242140002A01D0082211431B4A5D
:1004900052689207FBD4194A1278920708D5174C74
:1004A00022780225AA432270144A52689207FBD48C
:1004B000C208124E06329200B446624457680724BE
:1004C0000440A4000F25A5403D4055605568A1405B
:1004D00029435160327802210A433270074A526838
:1004E0009207FBD4002B04D001238340034A1361FD
:1004F000F0BD01238340014AD360F9E700280040A2
:1005000010B5826813789B00C1688C466344036110
:100510005178C9005B184361D17809015B18836188
:10052000117909015B18C361917809015B180362B5
:10053000D27912019B18436203685E4A934200D14C
:1005400082E05D4A934200D18EE0036801229A6105
:1005500003689A69D207FBD59A6902210A439A6116
:1005600001234360C3681B041B0C826812781204C9
:100570001343842201688B5003691A04120C8368A8
:100580005B781B04FE24E40323401A43882301689C
:10059000CA50C3691B041B0CAC2201688B50436911
:1005A0001A04120C8368D978090421400A43A02355
:1005B0000168CA5083691B041B0C826812791204FB
:1005C00022401343B02201688B50436A1B041B0C6A
:1005D000826851790904FC24A40321400B439179DA
:1005E0000906FC22920511400B43C02201688B5082
:1005F000036A1B041B0C8268D27912042240134345
:10060000F02201688B50826803689268DA6183681F
:100610001A7B80230168CA5083681A699023016895
:10062000CA5083685A7B002A2ED05B69002B2BD0DE
:10063000C368002281684C7B944225D949699400A3
:10064000615802C30132F5E71C4A116980235B003F
:100650000B4313611A4AE8234021D150184AE8237A
:10066000D3585B06FAD570E7144A116980239B00C2
:100670000B431361124AEC234021D150104AEC2362
:10068000D3585B06FAD560E783689A7B002A0FD0BF
:100690009B69002B0CD0036900218468A27B520067
:1006A0008A4205D9A2698C00A25804C30131F4E73B
:1006B00010BDC046001C004200200042000800405F
:1006C000001C004070B54368012B04D9023B012B8C
:1006D00025D9002070BD8B1E012B03D9012915D00F
:1006E0000020F7E70568CB1E5A425341DBB2AA69E6
:1006F000012423405B012026B2431343AB6102680F
:100700009369A343936141600120E3E70268936921
:1007100001310B439361012343600120DAE7012992
:1007200001D90020D6E7026893690124A3439361AD
:1007300003689A69D207FBD5012902D041600120E4
:10074000C8E79A69022422439A61F7E770B504006A
:10075000002925D10568A4202B589B049B0E2858FE
:100760004006400E1D016669B4466544002841D02C
:100770002868460023D5C000C00810600120107111
:100780002868800020D510790225284310710020A8
:100790005071002928D12168A8228B50012029E01E
:1007A000012926D10568B4202B589B049B0E28589C
:1007B0004006400E1D01A669B4466544D6E7800C8C
:1007C0004005400D1060DBE7AE790F20304008286F
:1007D00006D908205071A8689060E868D060D8E712
:1007E00050710028D5D0F6E72168B8228B5001203F
:1007F00000E0002070BD000030B50368C4229A58A4
:10080000920229D4C4229C58E402E40E2301426AD5
:10081000944663440A79D20718D5104A0D682A40D5
:1008200001252A4304C34A791204F0252D032A40E6
:100830001A608A685A60CA689A600068D021435872
:100840000122A24013434350012030BD0A689204A4
:10085000034D2A4004C3E6E70020F6E7FEFFFF1F32
:100860000000FC1F10B5034B1B68034A1068984733
:1008700010BDC046800000206800002010B5034B6A
:100880005B68034A5068984710BDC046800000204E
:100890006800002010B5034B9B68034A9068984796
:1008A00010BDC046800000206800002010B5034B3A
:1008B000DB68034AD068984710BDC046800000201E
:1008C0006800002010B5034B1B69034A1069984764
:1008D00010BDC046800000206800002010B5034B0A
:1008E0005B69034A5069984710BDC04680000020EC
:1008F00068000020012823D01D4B1E4A5A62802226
:10090000412199501A4A8023D3585B06FAD51A4BD5
:100910005F221A623F3A5A620832002199545A32D1
:100920001A77154A2C23D35C9B07FAD4104B134A31
:100930009A620422FF32DA63114BF43A1A6070476C
:100940000D4B104A1A820A4A0F4951625F221A62FD
:100950000E4A5A622822002199545A321A77064ABE
:100960002C23D35C9B07FAD4014B094A1A62DDE7BA
:10097000001C004006013000001000400701030089
:100980002800002086ABFFFF0009100010000700C0
:1009900007090200034B1B680340581E8341D8B26D
:1009A0007047C0462800002010B501000B4B1868A6
:1009B00000F09EFB013880235B0498420DD2084A68
:1009C00050600848036A1B021B0AC02109060B433A
:1009D0000362002393600733136010BD48000020BA
:1009E00010E000E000ED00E0014B18687047C046E1
:1009F0009800002010B5084A1368013313600024E2
:100A000000E00134032C06D8A300044A9B58002BB5
:100A1000F7D09847F5E710BD98000020B8020020F5
:100A2000F0B5D6464F464646C0B590B00120FFF718
:100A300061FFFA208000FFF7B7FF00F07BFAFFF7B5
:100A4000D3FF06000EAB00221A805A809A8008322B
:100A500000210CA800F0E6FC00230022C02108A819
:100A600000F02AFB08A9C648FFF7C6FEB2460025DB
:100A70000027002399469846A5E18223DB058022C2
:100A800052019A61BF4A01211170802292019A613C
:100A90008022D2029A610125A3E10C22002101A843
:100AA00000F0C0FCCE230093B64B1B786A4613724D
:100AB000B54B1B785372B54B1B7893726B464A4605
:100AC000DA7209210120FFF79BFC6B46187305239E
:100AD0006A4653716946AA48FFF78EFE84E10C22EC
:100AE000002101A800F09EFCC123009300236A4668
:100AF0001372013353716946A148FFF77DFE7AE115
:100B0000FFF772FFA24B1B68C01AA24B984200D895
:100B100080E18223DB05802252015A619A61994B60
:100B200001221A709C4A137801331370984B0022EB
:100B30001A606FE10C22002101A800F073FCC123B0
:100B40000093C03B6A461372537169468C48FFF7A5
:100B500053FE66E1FFF748FF904B1B68C01A8D4BB0
:100B6000984200D86CE18223DB05802292015A6111
:100B70009A61854B01221A70894A137801331370E8
:100B8000864B00221A605BE10C22002101A800F0D4
:100B900049FCC1230093BF3B6A461372013B53716A
:100BA00069467748FFF728FE51E1FFF71DFF7D4BAF
:100BB0001B68C01A774B984200D857E18223DB05A7
:100BC0008022D2025A619A61704B01221A70764AD1
:100BD000137801331370734B00221A6046E1734E91
:100BE00006213000FFF776FB00213000FFF780FB85
:100BF0006E4B9B79DB07FBD56C4EB08CC8235843FA
:100C00001821FF3100F0FEFA0EAB188007213000EA
:100C1000FFF760FB00213000FFF76AFB634B9B7915
:100C2000DB07FBD5614EB08CC82358431821FF3138
:100C300000F0E8FA0EAB588008213000FFF74AFBBD
:100C400000213000FFF754FB584B9B79DB07FBD5A5
:100C5000564B988CC82358431821FF3100F0D2FA24
:100C60000EAB9880002D01D1260003E10622CA2197
:100C700008A800F021FA08A94148FFF7BDFD2600A9
:100C8000F8E04B4B994607211800FFF723FB0021A2
:100C90004846FFF72DFB464B9B79DB07FBD5444BC2
:100CA00099469A8C5300D318DB009B1ADA0FD3189D
:100CB0005B100CAA13800A214846FFF70BFB0021AA
:100CC0004846FFF715FB3A4B9B79DB07FBD5384BC2
:100CD00099469B8C9A009A1852009B18DA0FD318E9
:100CE0005B100CAA53800B214846FFF7F3FA002152
:100CF0004846FFF7FDFA2E4B9B79DB07FBD52C4BC3
:100D000099469A8C5300D318DB009B1ADA0FD3183C
:100D10005B100CAAD38002214846FFF7DBFA0021C2
:100D20004846FFF7E5FA224B9B79DB07FBD5204BC2
:100D30009A8C5300D318DB009B1ADA0FD3185B1080
:100D40000CAA9380002D03D1A2460123994699E075
:100D500013000822CD2108A800F0AEF908A9084820
:100D6000FFF74AFDA946A2468CE0002F2BD1822234
:100D7000D20598238021C900D150013723E0C04615
:100D800000000020B4000020AC000020A4000020DF
:100D9000B000002087130000AD000020A800002054
:100DA000A5000020A00000209C0000200048004278
:100DB00000440042002F06D08222D20594238021D5
:100DC000C900D1504F46FFF70FFE040004AA0021CE
:100DD0003748FFF7BBFC002803D0049B502B00D101
:100DE0004BE6632C00D958E6324B1B68002B11D020
:100DF000002D00D073E6304B1B78032B00D07FE62C
:100E00008223DB05802252015A6100232B4A137092
:100E1000284A13602A4B1B68002B11D0002D00D0EC
:100E200088E6284B1B78032B00D093E68223DB0552
:100E3000802292015A610023234A1370204A1360D2
:100E4000224B1B68002B11D0002D00D09CE6204BBC
:100E50001B78032B00D0A8E68223DB058022D20278
:100E60005A6100231B4A1370184A1360A31B132BEB
:100E700000D9B4E65346E31A132B00D901E74B46D9
:100E8000002B97D009210120FFF7BAFA002800D0E3
:100E90006BE74346E31AFA225200934293D9822227
:100EA000D2059C238021C900D150A0468BE7C046C3
:100EB00000000020B0000020AD000020B4000020A1
:100EC000A8000020A5000020AC000020A000002009
:100ED0009C000020A400002010B5124B5B69042B7D
:100EE00008D0104B5B69052B0CD00E4B5B69082BAF
:100EF00010D010BD0B4B04225A61FFF775FD0A4B51
:100F00001860EEE7074B05225A61FFF76DFD074BAE
:100F10001860EAE7034B08225A61FFF765FD044BAE
:100F20001860E6E700280040B0000020A80000207C
:100F3000A000002010B5032216210120FFF7E8F9D8
:100F4000062216210120FFF732FA00221721012084
:100F5000FFF7DEF9062217210120FFF728FA534C8C
:100F60002000FFF7CDFA02212000FFF7ABFB04229F
:100F700004210020FFF7CCF9012204210020FFF713
:100F800016FA042205210020FFF7C2F901220521EB
:100F90000020FFF70CFA042206210020FFF7B8F921
:100FA000012206210020FFF702FA04220721002077
:100FB000FFF7AEF9012207210020FFF7F8F904221C
:100FC0000A210020FFF7A4F901220A210020FFF7DF
:100FD000EEF904220B210020FFF79AF901220B21E0
:100FE0000020FFF7E4F9042208210020FFF790F920
:100FF000012208210020FFF7DAF9002205212C4800
:10100000FFF7C6F8002205212A48FFF7C1F803229E
:101010000C210020FFF77CF98224E40580235B018A
:10102000636103220D210020FFF772F980239B01E9
:101030006361032212210020FFF76AF98023DB029B
:101040006361002214210020FFF762F900221421BD
:101050000020FFF7ACF9002215210020FFF758F916
:10106000002215210020FFF7A2F900221C210020F8
:10107000FFF74EF900221C210020FFF798F902200B
:10108000FFF7CCF90123012202210420FFF7F8F930
:101090000123012202210520FFF7F2F90123012299
:1010A00002210820FFF7ECF910BDC0460000002027
:1010B000004400420048004230B5082A15D80160BB
:1010C0004271002107E04C0864001C5B240A4518AB
:1010D0002C720131C9B2914205D2CC07F3D44C082D
:1010E00064001C5DF3E7012030BD0020FCE7000038
:1010F000002243088B4274D303098B425FD3030A57
:101100008B4244D3030B8B4228D3030C8B420DD369
:10111000FF22090212BA030C8B4202D312120902F7
:1011200065D0030B8B4219D300E0090AC30B8B4235
:1011300001D3CB03C01A5241830B8B4201D38B03E3
:10114000C01A5241430B8B4201D34B03C01A524188
:10115000030B8B4201D30B03C01A5241C30A8B42CB
:1011600001D3CB02C01A5241830A8B4201D38B02B6
:10117000C01A5241430A8B4201D34B02C01A52415A
:10118000030A8B4201D30B02C01A5241CDD2C309CC
:101190008B4201D3CB01C01A524183098B4201D348
:1011A0008B01C01A524143098B4201D34B01C01A33
:1011B000524103098B4201D30B01C01A5241C308AB
:1011C0008B4201D3CB00C01A524183088B4201D31A
:1011D0008B00C01A524143088B4201D34B00C01A06
:1011E0005241411A00D20146524110467047FFE772
:1011F00001B5002000F0F0F802BDC0460029F7D08C
:1012000076E7704703460B437FD4002243088B42A6
:1012100074D303098B425FD3030A8B4244D3030B7D
:101220008B4228D3030C8B420DD3FF22090212BA42
:10123000030C8B4202D31212090265D0030B8B42BE
:1012400019D300E0090AC30B8B4201D3CB03C01AA8
:101250005241830B8B4201D38B03C01A5241430B83
:101260008B4201D34B03C01A5241030B8B4201D373
:101270000B03C01A5241C30A8B4201D3CB02C01ADE
:101280005241830A8B4201D38B02C01A5241430A56
:101290008B4201D34B02C01A5241030A8B4201D345
:1012A0000B02C01A5241CDD2C3098B4201D3CB01EC
:1012B000C01A524183098B4201D38B01C01A52419B
:1012C00043098B4201D34B01C01A524103098B429F
:1012D00001D30B01C01A5241C3088B4201D3CB008A
:1012E000C01A524183088B4201D38B00C01A52416D
:1012F00043088B4201D34B00C01A5241411A00D21D
:1013000001465241104670475DE0CA0F00D0494285
:10131000031000D34042534000229C4603098B42F5
:101320002DD3030A8B4212D3FC22890112BA030A7D
:101330008B420CD3890192118B4208D389019211FF
:101340008B4204D389013AD0921100E08909C30984
:101350008B4201D3CB01C01A524183098B4201D386
:101360008B01C01A524143098B4201D34B01C01A71
:10137000524103098B4201D30B01C01A5241C308E9
:101380008B4201D3CB00C01A524183088B4201D358
:101390008B00C01A5241D9D243088B4201D34B0073
:1013A000C01A5241411A00D20146634652415B10B5
:1013B000104601D34042002B00D549427047634696
:1013C0005B1000D3404201B5002000F005F802BDDB
:1013D0000029F8D016E770477047C04670B5002660
:1013E0000C4D0D4C641BA410A64209D1002600F040
:1013F00021F80A4D0A4C641BA410A64205D170BD09
:10140000B300EB5898470136EEE7B300EB58984726
:101410000136F2E7401400004014000040140000C0
:101420004414000003008218934200D170471970E1
:101430000133F9E7F8B5C046F8BC08BC9E467047D2
:10144000E5000000F8B5C046F8BC08BC9E467047F1
:04145000BD000000DB
:10145400001C0042000000002C000020B800002006
:101464000000000000000000000000000000000078
:101474000000000000000000010000000000001057
:1014840000100000010C050008000000FFFFFF1F12
:08149400000000000000000050
:00000001FF
